{
  "contractName": "TokenFactory",
  "abi": [
    {
      "inputs": [],
      "stateMutability": "nonpayable",
      "type": "constructor"
    },
    {
      "anonymous": false,
      "inputs": [
        {
          "indexed": true,
          "internalType": "address",
          "name": "previousOwner",
          "type": "address"
        },
        {
          "indexed": true,
          "internalType": "address",
          "name": "newOwner",
          "type": "address"
        }
      ],
      "name": "OwnershipTransferred",
      "type": "event"
    },
    {
      "inputs": [],
      "name": "owner",
      "outputs": [
        {
          "internalType": "address",
          "name": "",
          "type": "address"
        }
      ],
      "stateMutability": "view",
      "type": "function"
    },
    {
      "inputs": [],
      "name": "renounceOwnership",
      "outputs": [],
      "stateMutability": "nonpayable",
      "type": "function"
    },
    {
      "inputs": [],
      "name": "tokenCloneCounter",
      "outputs": [
        {
          "internalType": "uint256",
          "name": "",
          "type": "uint256"
        }
      ],
      "stateMutability": "view",
      "type": "function"
    },
    {
      "inputs": [
        {
          "internalType": "uint256",
          "name": "",
          "type": "uint256"
        }
      ],
      "name": "tokenContracts",
      "outputs": [
        {
          "internalType": "address",
          "name": "",
          "type": "address"
        }
      ],
      "stateMutability": "view",
      "type": "function"
    },
    {
      "inputs": [],
      "name": "tokenImplementation",
      "outputs": [
        {
          "internalType": "address",
          "name": "",
          "type": "address"
        }
      ],
      "stateMutability": "view",
      "type": "function"
    },
    {
      "inputs": [
        {
          "internalType": "address",
          "name": "newOwner",
          "type": "address"
        }
      ],
      "name": "transferOwnership",
      "outputs": [],
      "stateMutability": "nonpayable",
      "type": "function"
    },
    {
      "inputs": [
        {
          "internalType": "string",
          "name": "name",
          "type": "string"
        },
        {
          "internalType": "string",
          "name": "symbol",
          "type": "string"
        },
        {
          "internalType": "uint256",
          "name": "supply",
          "type": "uint256"
        },
        {
          "internalType": "address",
          "name": "newOwner",
          "type": "address"
        }
      ],
      "name": "createTokenClone",
      "outputs": [
        {
          "internalType": "address",
          "name": "",
          "type": "address"
        }
      ],
      "stateMutability": "nonpayable",
      "type": "function"
    },
    {
      "inputs": [
        {
          "internalType": "uint256",
          "name": "_idx",
          "type": "uint256"
        }
      ],
      "name": "getTokenAddresses",
      "outputs": [
        {
          "internalType": "address",
          "name": "",
          "type": "address"
        }
      ],
      "stateMutability": "view",
      "type": "function"
    },
    {
      "inputs": [],
      "name": "getTokenCounter",
      "outputs": [
        {
          "internalType": "uint256",
          "name": "",
          "type": "uint256"
        }
      ],
      "stateMutability": "view",
      "type": "function"
    }
  ],
  "bytecode": "0x60a060405234801561000f575f80fd5b5061002c61002161008a60201b60201c565b61009160201b60201c565b60405161003890610152565b604051809103905ff080158015610051573d5f803e3d5ffd5b5073ffffffffffffffffffffffffffffffffffffffff1660808173ffffffffffffffffffffffffffffffffffffffff168152505061015f565b5f33905090565b5f805f9054906101000a900473ffffffffffffffffffffffffffffffffffffffff169050815f806101000a81548173ffffffffffffffffffffffffffffffffffffffff021916908373ffffffffffffffffffffffffffffffffffffffff1602179055508173ffffffffffffffffffffffffffffffffffffffff168173ffffffffffffffffffffffffffffffffffffffff167f8be0079c531659141344cd1fd0a4f28419497f9722a3daafe3b4186f6b6457e060405160405180910390a35050565b611fbb80610dd983390190565b608051610c5b61017e5f395f8181610200015261027a0152610c5b5ff3fe608060405234801561000f575f80fd5b5060043610610091575f3560e01c8063715018a611610064578063715018a61461011f5780638da5cb5b14610129578063b177074214610147578063c591a49114610177578063f2fde38b146101a757610091565b80631d9fb309146100955780632f3a3d5d146100c55780636b305b55146100e35780636e02007d14610101575b5f80fd5b6100af60048036038101906100aa9190610697565b6101c3565b6040516100bc9190610701565b60405180910390f35b6100cd6101fe565b6040516100da9190610701565b60405180910390f35b6100eb610222565b6040516100f89190610729565b60405180910390f35b610109610228565b6040516101169190610729565b60405180910390f35b610127610231565b005b610131610244565b60405161013e9190610701565b60405180910390f35b610161600480360381019061015c91906108a8565b61026b565b60405161016e9190610701565b60405180910390f35b610191600480360381019061018c9190610697565b610391565b60405161019e9190610701565b60405180910390f35b6101c160048036038101906101bc9190610944565b6103d5565b005b600181815481106101d2575f80fd5b905f5260205f20015f915054906101000a900473ffffffffffffffffffffffffffffffffffffffff1681565b7f000000000000000000000000000000000000000000000000000000000000000081565b60025481565b5f600254905090565b610239610457565b6102425f6104d5565b565b5f805f9054906101000a900473ffffffffffffffffffffffffffffffffffffffff16905090565b5f610274610457565b5f61029e7f0000000000000000000000000000000000000000000000000000000000000000610596565b90508073ffffffffffffffffffffffffffffffffffffffff1663bd3a13f6878787876040518563ffffffff1660e01b81526004016102df94939291906109e9565b5f604051808303815f87803b1580156102f6575f80fd5b505af1158015610308573d5f803e3d5ffd5b50505050600181908060018154018082558091505060019003905f5260205f20015f9091909190916101000a81548173ffffffffffffffffffffffffffffffffffffffff021916908373ffffffffffffffffffffffffffffffffffffffff160217905550600160025f82825461037e9190610a67565b9250508190555080915050949350505050565b5f600182815481106103a6576103a5610a9a565b5b905f5260205f20015f9054906101000a900473ffffffffffffffffffffffffffffffffffffffff169050919050565b6103dd610457565b5f73ffffffffffffffffffffffffffffffffffffffff168173ffffffffffffffffffffffffffffffffffffffff160361044b576040517f08c379a000000000000000000000000000000000000000000000000000000000815260040161044290610b37565b60405180910390fd5b610454816104d5565b50565b61045f61064c565b73ffffffffffffffffffffffffffffffffffffffff1661047d610244565b73ffffffffffffffffffffffffffffffffffffffff16146104d3576040517f08c379a00000000000000000000000000000000000000000000000000000000081526004016104ca90610b9f565b60405180910390fd5b565b5f805f9054906101000a900473ffffffffffffffffffffffffffffffffffffffff169050815f806101000a81548173ffffffffffffffffffffffffffffffffffffffff021916908373ffffffffffffffffffffffffffffffffffffffff1602179055508173ffffffffffffffffffffffffffffffffffffffff168173ffffffffffffffffffffffffffffffffffffffff167f8be0079c531659141344cd1fd0a4f28419497f9722a3daafe3b4186f6b6457e060405160405180910390a35050565b5f763d602d80600a3d3981f3363d3d373d3d3d363d730000008260601b60e81c175f526e5af43d82803e903d91602b57fd5bf38260781b17602052603760095ff090505f73ffffffffffffffffffffffffffffffffffffffff168173ffffffffffffffffffffffffffffffffffffffff1603610647576040517f08c379a000000000000000000000000000000000000000000000000000000000815260040161063e90610c07565b60405180910390fd5b919050565b5f33905090565b5f604051905090565b5f80fd5b5f80fd5b5f819050919050565b61067681610664565b8114610680575f80fd5b50565b5f813590506106918161066d565b92915050565b5f602082840312156106ac576106ab61065c565b5b5f6106b984828501610683565b91505092915050565b5f73ffffffffffffffffffffffffffffffffffffffff82169050919050565b5f6106eb826106c2565b9050919050565b6106fb816106e1565b82525050565b5f6020820190506107145f8301846106f2565b92915050565b61072381610664565b82525050565b5f60208201905061073c5f83018461071a565b92915050565b5f80fd5b5f80fd5b5f601f19601f8301169050919050565b7f4e487b71000000000000000000000000000000000000000000000000000000005f52604160045260245ffd5b6107908261074a565b810181811067ffffffffffffffff821117156107af576107ae61075a565b5b80604052505050565b5f6107c1610653565b90506107cd8282610787565b919050565b5f67ffffffffffffffff8211156107ec576107eb61075a565b5b6107f58261074a565b9050602081019050919050565b828183375f83830152505050565b5f61082261081d846107d2565b6107b8565b90508281526020810184848401111561083e5761083d610746565b5b610849848285610802565b509392505050565b5f82601f83011261086557610864610742565b5b8135610875848260208601610810565b91505092915050565b610887816106e1565b8114610891575f80fd5b50565b5f813590506108a28161087e565b92915050565b5f805f80608085870312156108c0576108bf61065c565b5b5f85013567ffffffffffffffff8111156108dd576108dc610660565b5b6108e987828801610851565b945050602085013567ffffffffffffffff81111561090a57610909610660565b5b61091687828801610851565b935050604061092787828801610683565b925050606061093887828801610894565b91505092959194509250565b5f602082840312156109595761095861065c565b5b5f61096684828501610894565b91505092915050565b5f81519050919050565b5f82825260208201905092915050565b5f5b838110156109a657808201518184015260208101905061098b565b5f8484015250505050565b5f6109bb8261096f565b6109c58185610979565b93506109d5818560208601610989565b6109de8161074a565b840191505092915050565b5f6080820190508181035f830152610a0181876109b1565b90508181036020830152610a1581866109b1565b9050610a24604083018561071a565b610a3160608301846106f2565b95945050505050565b7f4e487b71000000000000000000000000000000000000000000000000000000005f52601160045260245ffd5b5f610a7182610664565b9150610a7c83610664565b9250828201905080821115610a9457610a93610a3a565b5b92915050565b7f4e487b71000000000000000000000000000000000000000000000000000000005f52603260045260245ffd5b7f4f776e61626c653a206e6577206f776e657220697320746865207a65726f20615f8201527f6464726573730000000000000000000000000000000000000000000000000000602082015250565b5f610b21602683610979565b9150610b2c82610ac7565b604082019050919050565b5f6020820190508181035f830152610b4e81610b15565b9050919050565b7f4f776e61626c653a2063616c6c6572206973206e6f7420746865206f776e65725f82015250565b5f610b89602083610979565b9150610b9482610b55565b602082019050919050565b5f6020820190508181035f830152610bb681610b7d565b9050919050565b7f455243313136373a20637265617465206661696c6564000000000000000000005f82015250565b5f610bf1601683610979565b9150610bfc82610bbd565b602082019050919050565b5f6020820190508181035f830152610c1e81610be5565b905091905056fea2646970667358221220543bbf9257c1c38301119769cee9ff1fa328379462e1d166425d076852c7ce5f64736f6c63430008150033608060405234801561000f575f80fd5b50611f9e8061001d5f395ff3fe608060405234801561000f575f80fd5b50600436106100e8575f3560e01c806370a082311161008a578063a457c2d711610064578063a457c2d71461025c578063a9059cbb1461028c578063bd3a13f6146102bc578063dd62ed3e146102d8576100e8565b806370a08231146101f257806379cc67901461022257806395d89b411461023e576100e8565b806323b872dd116100c657806323b872dd14610158578063313ce5671461018857806339509351146101a657806342966c68146101d6576100e8565b806306fdde03146100ec578063095ea7b31461010a57806318160ddd1461013a575b5f80fd5b6100f4610308565b604051610101919061115a565b60405180910390f35b610124600480360381019061011f9190611218565b610398565b6040516101319190611270565b60405180910390f35b6101426103ba565b60405161014f9190611298565b60405180910390f35b610172600480360381019061016d91906112b1565b6103c3565b60405161017f9190611270565b60405180910390f35b6101906103f1565b60405161019d919061131c565b60405180910390f35b6101c060048036038101906101bb9190611218565b6103f9565b6040516101cd9190611270565b60405180910390f35b6101f060048036038101906101eb9190611335565b61042f565b005b61020c60048036038101906102079190611360565b610443565b6040516102199190611298565b60405180910390f35b61023c60048036038101906102379190611218565b610489565b005b6102466104a9565b604051610253919061115a565b60405180910390f35b61027660048036038101906102719190611218565b610539565b6040516102839190611270565b60405180910390f35b6102a660048036038101906102a19190611218565b6105ae565b6040516102b39190611270565b60405180910390f35b6102d660048036038101906102d191906114b7565b6105d0565b005b6102f260048036038101906102ed9190611553565b610710565b6040516102ff9190611298565b60405180910390f35b606060368054610317906115be565b80601f0160208091040260200160405190810160405280929190818152602001828054610343906115be565b801561038e5780601f106103655761010080835404028352916020019161038e565b820191905f5260205f20905b81548152906001019060200180831161037157829003601f168201915b5050505050905090565b5f806103a2610792565b90506103af818585610799565b600191505092915050565b5f603554905090565b5f806103cd610792565b90506103da85828561095c565b6103e58585856109e7565b60019150509392505050565b5f6012905090565b5f80610403610792565b90506104248185856104158589610710565b61041f919061161b565b610799565b600191505092915050565b61044061043a610792565b82610c56565b50565b5f60335f8373ffffffffffffffffffffffffffffffffffffffff1673ffffffffffffffffffffffffffffffffffffffff1681526020019081526020015f20549050919050565b61049b82610495610792565b8361095c565b6104a58282610c56565b5050565b6060603780546104b8906115be565b80601f01602080910402602001604051908101604052809291908181526020018280546104e4906115be565b801561052f5780601f106105065761010080835404028352916020019161052f565b820191905f5260205f20905b81548152906001019060200180831161051257829003601f168201915b5050505050905090565b5f80610543610792565b90505f6105508286610710565b905083811015610595576040517f08c379a000000000000000000000000000000000000000000000000000000000815260040161058c906116be565b60405180910390fd5b6105a28286868403610799565b60019250505092915050565b5f806105b8610792565b90506105c58185856109e7565b600191505092915050565b5f8060019054906101000a900460ff161590508080156105ff575060015f8054906101000a900460ff1660ff16105b8061062b575061060e30610e1b565b15801561062a575060015f8054906101000a900460ff1660ff16145b5b61066a576040517f08c379a00000000000000000000000000000000000000000000000000000000081526004016106619061174c565b60405180910390fd5b60015f806101000a81548160ff021916908360ff16021790555080156106a55760015f60016101000a81548160ff0219169083151502179055505b6106b185858585610e3d565b8015610709575f8060016101000a81548160ff0219169083151502179055507f7f26b83ff96e1f2b6a682f133852f6798a09c465da95921460cefb3847402498600160405161070091906117ac565b60405180910390a15b5050505050565b5f60345f8473ffffffffffffffffffffffffffffffffffffffff1673ffffffffffffffffffffffffffffffffffffffff1681526020019081526020015f205f8373ffffffffffffffffffffffffffffffffffffffff1673ffffffffffffffffffffffffffffffffffffffff1681526020019081526020015f2054905092915050565b5f33905090565b5f73ffffffffffffffffffffffffffffffffffffffff168373ffffffffffffffffffffffffffffffffffffffff1603610807576040517f08c379a00000000000000000000000000000000000000000000000000000000081526004016107fe90611835565b60405180910390fd5b5f73ffffffffffffffffffffffffffffffffffffffff168273ffffffffffffffffffffffffffffffffffffffff1603610875576040517f08c379a000000000000000000000000000000000000000000000000000000000815260040161086c906118c3565b60405180910390fd5b8060345f8573ffffffffffffffffffffffffffffffffffffffff1673ffffffffffffffffffffffffffffffffffffffff1681526020019081526020015f205f8473ffffffffffffffffffffffffffffffffffffffff1673ffffffffffffffffffffffffffffffffffffffff1681526020019081526020015f20819055508173ffffffffffffffffffffffffffffffffffffffff168373ffffffffffffffffffffffffffffffffffffffff167f8c5be1e5ebec7d5bd14f71427d1e84f3dd0314c0f7b2291e5b200ac8c7c3b9258360405161094f9190611298565b60405180910390a3505050565b5f6109678484610710565b90507fffffffffffffffffffffffffffffffffffffffffffffffffffffffffffffffff81146109e157818110156109d3576040517f08c379a00000000000000000000000000000000000000000000000000000000081526004016109ca9061192b565b60405180910390fd5b6109e08484848403610799565b5b50505050565b5f73ffffffffffffffffffffffffffffffffffffffff168373ffffffffffffffffffffffffffffffffffffffff1603610a55576040517f08c379a0000000000000000000000000000000000000000000000000000000008152600401610a4c906119b9565b60405180910390fd5b5f73ffffffffffffffffffffffffffffffffffffffff168273ffffffffffffffffffffffffffffffffffffffff1603610ac3576040517f08c379a0000000000000000000000000000000000000000000000000000000008152600401610aba90611a47565b60405180910390fd5b610ace838383610ea7565b5f60335f8573ffffffffffffffffffffffffffffffffffffffff1673ffffffffffffffffffffffffffffffffffffffff1681526020019081526020015f2054905081811015610b52576040517f08c379a0000000000000000000000000000000000000000000000000000000008152600401610b4990611ad5565b60405180910390fd5b81810360335f8673ffffffffffffffffffffffffffffffffffffffff1673ffffffffffffffffffffffffffffffffffffffff1681526020019081526020015f20819055508160335f8573ffffffffffffffffffffffffffffffffffffffff1673ffffffffffffffffffffffffffffffffffffffff1681526020019081526020015f205f82825401925050819055508273ffffffffffffffffffffffffffffffffffffffff168473ffffffffffffffffffffffffffffffffffffffff167fddf252ad1be2c89b69c2b068fc378daa952ba7f163c4a11628f55a4df523b3ef84604051610c3d9190611298565b60405180910390a3610c50848484610eac565b50505050565b5f73ffffffffffffffffffffffffffffffffffffffff168273ffffffffffffffffffffffffffffffffffffffff1603610cc4576040517f08c379a0000000000000000000000000000000000000000000000000000000008152600401610cbb90611b63565b60405180910390fd5b610ccf825f83610ea7565b5f60335f8473ffffffffffffffffffffffffffffffffffffffff1673ffffffffffffffffffffffffffffffffffffffff1681526020019081526020015f2054905081811015610d53576040517f08c379a0000000000000000000000000000000000000000000000000000000008152600401610d4a90611bf1565b60405180910390fd5b81810360335f8573ffffffffffffffffffffffffffffffffffffffff1673ffffffffffffffffffffffffffffffffffffffff1681526020019081526020015f20819055508160355f82825403925050819055505f73ffffffffffffffffffffffffffffffffffffffff168373ffffffffffffffffffffffffffffffffffffffff167fddf252ad1be2c89b69c2b068fc378daa952ba7f163c4a11628f55a4df523b3ef84604051610e039190611298565b60405180910390a3610e16835f84610eac565b505050565b5f808273ffffffffffffffffffffffffffffffffffffffff163b119050919050565b5f60019054906101000a900460ff16610e8b576040517f08c379a0000000000000000000000000000000000000000000000000000000008152600401610e8290611c7f565b60405180910390fd5b610e958484610eb1565b610ea184848484610f23565b50505050565b505050565b505050565b5f60019054906101000a900460ff16610eff576040517f08c379a0000000000000000000000000000000000000000000000000000000008152600401610ef690611c7f565b60405180910390fd5b8160369081610f0e9190611e31565b508060379081610f1e9190611e31565b505050565b5f60019054906101000a900460ff16610f71576040517f08c379a0000000000000000000000000000000000000000000000000000000008152600401610f6890611c7f565b60405180910390fd5b610f7b8183610f81565b50505050565b5f73ffffffffffffffffffffffffffffffffffffffff168273ffffffffffffffffffffffffffffffffffffffff1603610fef576040517f08c379a0000000000000000000000000000000000000000000000000000000008152600401610fe690611f4a565b60405180910390fd5b610ffa5f8383610ea7565b8060355f82825461100b919061161b565b925050819055508060335f8473ffffffffffffffffffffffffffffffffffffffff1673ffffffffffffffffffffffffffffffffffffffff1681526020019081526020015f205f82825401925050819055508173ffffffffffffffffffffffffffffffffffffffff165f73ffffffffffffffffffffffffffffffffffffffff167fddf252ad1be2c89b69c2b068fc378daa952ba7f163c4a11628f55a4df523b3ef836040516110b99190611298565b60405180910390a36110cc5f8383610eac565b5050565b5f81519050919050565b5f82825260208201905092915050565b5f5b838110156111075780820151818401526020810190506110ec565b5f8484015250505050565b5f601f19601f8301169050919050565b5f61112c826110d0565b61113681856110da565b93506111468185602086016110ea565b61114f81611112565b840191505092915050565b5f6020820190508181035f8301526111728184611122565b905092915050565b5f604051905090565b5f80fd5b5f80fd5b5f73ffffffffffffffffffffffffffffffffffffffff82169050919050565b5f6111b48261118b565b9050919050565b6111c4816111aa565b81146111ce575f80fd5b50565b5f813590506111df816111bb565b92915050565b5f819050919050565b6111f7816111e5565b8114611201575f80fd5b50565b5f81359050611212816111ee565b92915050565b5f806040838503121561122e5761122d611183565b5b5f61123b858286016111d1565b925050602061124c85828601611204565b9150509250929050565b5f8115159050919050565b61126a81611256565b82525050565b5f6020820190506112835f830184611261565b92915050565b611292816111e5565b82525050565b5f6020820190506112ab5f830184611289565b92915050565b5f805f606084860312156112c8576112c7611183565b5b5f6112d5868287016111d1565b93505060206112e6868287016111d1565b92505060406112f786828701611204565b9150509250925092565b5f60ff82169050919050565b61131681611301565b82525050565b5f60208201905061132f5f83018461130d565b92915050565b5f6020828403121561134a57611349611183565b5b5f61135784828501611204565b91505092915050565b5f6020828403121561137557611374611183565b5b5f611382848285016111d1565b91505092915050565b5f80fd5b5f80fd5b7f4e487b71000000000000000000000000000000000000000000000000000000005f52604160045260245ffd5b6113c982611112565b810181811067ffffffffffffffff821117156113e8576113e7611393565b5b80604052505050565b5f6113fa61117a565b905061140682826113c0565b919050565b5f67ffffffffffffffff82111561142557611424611393565b5b61142e82611112565b9050602081019050919050565b828183375f83830152505050565b5f61145b6114568461140b565b6113f1565b9050828152602081018484840111156114775761147661138f565b5b61148284828561143b565b509392505050565b5f82601f83011261149e5761149d61138b565b5b81356114ae848260208601611449565b91505092915050565b5f805f80608085870312156114cf576114ce611183565b5b5f85013567ffffffffffffffff8111156114ec576114eb611187565b5b6114f88782880161148a565b945050602085013567ffffffffffffffff81111561151957611518611187565b5b6115258782880161148a565b935050604061153687828801611204565b9250506060611547878288016111d1565b91505092959194509250565b5f806040838503121561156957611568611183565b5b5f611576858286016111d1565b9250506020611587858286016111d1565b9150509250929050565b7f4e487b71000000000000000000000000000000000000000000000000000000005f52602260045260245ffd5b5f60028204905060018216806115d557607f821691505b6020821081036115e8576115e7611591565b5b50919050565b7f4e487b71000000000000000000000000000000000000000000000000000000005f52601160045260245ffd5b5f611625826111e5565b9150611630836111e5565b9250828201905080821115611648576116476115ee565b5b92915050565b7f45524332303a2064656372656173656420616c6c6f77616e63652062656c6f775f8201527f207a65726f000000000000000000000000000000000000000000000000000000602082015250565b5f6116a86025836110da565b91506116b38261164e565b604082019050919050565b5f6020820190508181035f8301526116d58161169c565b9050919050565b7f496e697469616c697a61626c653a20636f6e747261637420697320616c7265615f8201527f647920696e697469616c697a6564000000000000000000000000000000000000602082015250565b5f611736602e836110da565b9150611741826116dc565b604082019050919050565b5f6020820190508181035f8301526117638161172a565b9050919050565b5f819050919050565b5f819050919050565b5f61179661179161178c8461176a565b611773565b611301565b9050919050565b6117a68161177c565b82525050565b5f6020820190506117bf5f83018461179d565b92915050565b7f45524332303a20617070726f76652066726f6d20746865207a65726f206164645f8201527f7265737300000000000000000000000000000000000000000000000000000000602082015250565b5f61181f6024836110da565b915061182a826117c5565b604082019050919050565b5f6020820190508181035f83015261184c81611813565b9050919050565b7f45524332303a20617070726f766520746f20746865207a65726f2061646472655f8201527f7373000000000000000000000000000000000000000000000000000000000000602082015250565b5f6118ad6022836110da565b91506118b882611853565b604082019050919050565b5f6020820190508181035f8301526118da816118a1565b9050919050565b7f45524332303a20696e73756666696369656e7420616c6c6f77616e63650000005f82015250565b5f611915601d836110da565b9150611920826118e1565b602082019050919050565b5f6020820190508181035f83015261194281611909565b9050919050565b7f45524332303a207472616e736665722066726f6d20746865207a65726f2061645f8201527f6472657373000000000000000000000000000000000000000000000000000000602082015250565b5f6119a36025836110da565b91506119ae82611949565b604082019050919050565b5f6020820190508181035f8301526119d081611997565b9050919050565b7f45524332303a207472616e7366657220746f20746865207a65726f20616464725f8201527f6573730000000000000000000000000000000000000000000000000000000000602082015250565b5f611a316023836110da565b9150611a3c826119d7565b604082019050919050565b5f6020820190508181035f830152611a5e81611a25565b9050919050565b7f45524332303a207472616e7366657220616d6f756e74206578636565647320625f8201527f616c616e63650000000000000000000000000000000000000000000000000000602082015250565b5f611abf6026836110da565b9150611aca82611a65565b604082019050919050565b5f6020820190508181035f830152611aec81611ab3565b9050919050565b7f45524332303a206275726e2066726f6d20746865207a65726f206164647265735f8201527f7300000000000000000000000000000000000000000000000000000000000000602082015250565b5f611b4d6021836110da565b9150611b5882611af3565b604082019050919050565b5f6020820190508181035f830152611b7a81611b41565b9050919050565b7f45524332303a206275726e20616d6f756e7420657863656564732062616c616e5f8201527f6365000000000000000000000000000000000000000000000000000000000000602082015250565b5f611bdb6022836110da565b9150611be682611b81565b604082019050919050565b5f6020820190508181035f830152611c0881611bcf565b9050919050565b7f496e697469616c697a61626c653a20636f6e7472616374206973206e6f7420695f8201527f6e697469616c697a696e67000000000000000000000000000000000000000000602082015250565b5f611c69602b836110da565b9150611c7482611c0f565b604082019050919050565b5f6020820190508181035f830152611c9681611c5d565b9050919050565b5f819050815f5260205f209050919050565b5f6020601f8301049050919050565b5f82821b905092915050565b5f60088302611cf97fffffffffffffffffffffffffffffffffffffffffffffffffffffffffffffffff82611cbe565b611d038683611cbe565b95508019841693508086168417925050509392505050565b5f611d35611d30611d2b846111e5565b611773565b6111e5565b9050919050565b5f819050919050565b611d4e83611d1b565b611d62611d5a82611d3c565b848454611cca565b825550505050565b5f90565b611d76611d6a565b611d81818484611d45565b505050565b5b81811015611da457611d995f82611d6e565b600181019050611d87565b5050565b601f821115611de957611dba81611c9d565b611dc384611caf565b81016020851015611dd2578190505b611de6611dde85611caf565b830182611d86565b50505b505050565b5f82821c905092915050565b5f611e095f1984600802611dee565b1980831691505092915050565b5f611e218383611dfa565b9150826002028217905092915050565b611e3a826110d0565b67ffffffffffffffff811115611e5357611e52611393565b5b611e5d82546115be565b611e68828285611da8565b5f60209050601f831160018114611e99575f8415611e87578287015190505b611e918582611e16565b865550611ef8565b601f198416611ea786611c9d565b5f5b82811015611ece57848901518255600182019150602085019450602081019050611ea9565b86831015611eeb5784890151611ee7601f891682611dfa565b8355505b6001600288020188555050505b505050505050565b7f45524332303a206d696e7420746f20746865207a65726f2061646472657373005f82015250565b5f611f34601f836110da565b9150611f3f82611f00565b602082019050919050565b5f6020820190508181035f830152611f6181611f28565b905091905056fea2646970667358221220036043e2b3637449a493fd2a2d6b591a11a178b51da2ca5d277bea116c01488664736f6c63430008150033",
  "immutableReferences": {
    "1625": [
      {
        "length": 32,
        "start": 512
      },
      {
        "length": 32,
        "start": 634
      }
    ]
  },
  "source": "// SPDX-License-Identifier: MIT\npragma solidity ^0.8.17;\n\nimport \"@openzeppelin/contracts/access/Ownable.sol\";\nimport \"@openzeppelin/contracts/proxy/Clones.sol\";\nimport \"@openzeppelin/contracts-upgradeable/token/ERC20/presets/ERC20PresetFixedSupplyUpgradeable.sol\";\n//openzeppelin contracts-upgradable version??????\n\ncontract TokenFactory is Ownable {\n  address public immutable tokenImplementation;\n  address[] public tokenContracts;\n  uint256 public tokenCloneCounter;\n\n  constructor() {\n    tokenImplementation = address(new ERC20PresetFixedSupplyUpgradeable());\n  }\n\n  function createTokenClone(\n    string memory name,\n    string memory symbol,\n    uint256 supply,\n    address newOwner\n  ) external onlyOwner returns (address) {\n    address tokenClone = Clones.clone(tokenImplementation);\n    ERC20PresetFixedSupplyUpgradeable(tokenClone).initialize(\n      name,\n      symbol,\n      supply,\n      newOwner\n    );\n    tokenContracts.push(tokenClone);\n    tokenCloneCounter += 1;\n    return tokenClone;\n  }\n\n  function getTokenAddresses(uint256 _idx) external view returns (address) {\n    return tokenContracts[_idx];\n  }\n\n  function getTokenCounter() external view returns (uint256) {\n    return tokenCloneCounter;\n  }\n}\n",
  "sourcePath": "/home/vincenzotinelli/Mz-Dev-L-18-CloneFactory/contracts/TokenFactory.sol",
  "compiler": {
    "name": "solc",
    "version": "0.8.21+commit.d9974bed.Emscripten.clang"
  },
  "schemaVersion": "3.4.16",
  "updatedAt": "2024-05-30T18:15:59.705Z",
  "devdoc": {
    "kind": "dev",
    "methods": {
      "owner()": {
        "details": "Returns the address of the current owner."
      },
      "renounceOwnership()": {
        "details": "Leaves the contract without owner. It will not be possible to call `onlyOwner` functions. Can only be called by the current owner. NOTE: Renouncing ownership will leave the contract without an owner, thereby disabling any functionality that is only available to the owner."
      },
      "transferOwnership(address)": {
        "details": "Transfers ownership of the contract to a new account (`newOwner`). Can only be called by the current owner."
      }
    },
    "version": 1
  },
  "userdoc": {
    "kind": "user",
    "methods": {},
    "version": 1
  }
}